:100000000C94CA000C9406010C943A010C94E7007D
:100010000C94E7000C94E7000C94E7000C94CA0DD4
:100020000C94D50D0C94E7000C94E7000C944B0E47
:100030000C94E7000C94A2130C94E7000C94E700D6
:100040000C94E7000C94E7000C94E7000C94E70094
:100050000C94E7002F130C136710671067106710DC
:1000600067106710671067106710671067106710D8
:1000700067106710671067106710671067106710C8
:1000800067106710671067106710671067106710B8
:1000900067106710671067106710671067106710A8
:1000A0006710671067106710671067106710671098
:1000B000671067101B13F812E412D012C9126710F0
:1000C0006710671067106710671067106710671078
:1000D0006710671067106710671067106710671068
:1000E0006710671067106710671067106710671058
:1000F0006710671067106710671067106710671048
:100100006710671067106710671067106710671037
:1001100067106710B9126312571247126710431223
:100120003C1235122E12271267106710B510671097
:10013000AC103011291122111211BF106710B81024
:100140001112011267102112084AD73B3BCE016EF3
:1001500084BCBFFDC12F3D6C74319ABD56833DDA1E
:100160003D00C77F11BED9E4BB4C3E916BAAAABE2D
:10017000000000803F05A84CCDB2D44EB93836A956
:10018000020C50B9918688083CA6AAAA2ABE000093
:1001900000803F0011241FBECFE5D8E0DEBFCDBFF9
:1001A00014E0A0E6B0E0EEE2FFE202C005900D929E
:1001B000A236B107D9F714E0A2E6B4E001C01D925F
:1001C000AC3AB107E1F70E943E040C9495170C94E9
:1001D00000008A988B9885B7886085BF85B7846052
:1001E00085BF85B7826085BF85B7816085BF8AB7C7
:1001F0008F7B8ABF8AB78F778ABF8BB780648BBFAC
:100200008BB780688BBF80E090E008951F920F92BB
:100210000FB60F9211248F939F93809168048130C1
:10022000C9F0823039F09F918F910F900FBE0F90DF
:100230001F901895809164049091650401979093A4
:100240006504809364049F918F910F900FBE0F906F
:100250001F90189580916404909165040196909385
:100260006504809364049F918F910F900FBE0F904F
:100270001F9018951F920F920FB60F9211248F9313
:100280009F93809167048130C9F0823039F09F914B
:100290008F910F900FBE0F901F9018958091620460
:1002A00090916304019790936304809362049F91FB
:1002B0008F910F900FBE0F901F9018958091620440
:1002C00090916304019690936304809362049F91DC
:1002D0008F910F900FBE0F901F9018958AB3807F5B
:1002E0008ABBD49ADC9887B1806C87B986B1846860
:1002F00086B980E090E00895DC9880E090E0089571
:10030000282F87B987B1806C87B9369A3699FECF86
:1003100084B195B19295990F990F907C86958695A9
:10032000982BF22FE0E0E90FF11DE05AFF4F80819A
:1003300008951F938091660487B987B1806C87B94F
:100340001AE040E050E062E0369A3699FECF24B1E0
:1003500085B190E0002496958795079496958795AA
:100360000794982F802D2695269530E0822B932B8D
:10037000480F591F615040F7CA0163E070E00E94C6
:100380006E17862F0E94220F1150D9F681E20E942B
:10039000220F1F910895813079F0813028F082304A
:1003A00079F0833029F0089585E30E94220F0895A3
:1003B00088E30E94220F089586E30E94220F089589
:1003C00087E30E94220F0895813079F0813028F070
:1003D000823079F0833029F0089581E30E94220F62
:1003E000089584E30E94220F089582E30E94220F61
:1003F000089583E30E94220F08951F93182F87B951
:1004000087B1806C87B96623D1F0EFE9F4E06150E1
:10041000262F30E06F5F20563B4F369A3699FECF3D
:1004200084B195B19295990F990F907C8695869598
:10043000982B9193E217F30781F79093A7042091EB
:10044000A6043091A504862F8150A82F87FD0AC0ED
:10045000882309F044C0922F30E08FEF292FA82F76
:1004600087FFF6CF2093A6043093A5048093A404BD
:10047000669570E0882777FD8095982F0E9430154B
:100480000E946B150E9402159B01AC0130E02156C1
:100490003B4FF901618182919F012F5F3F4F90E0B7
:1004A000860F911DF9012081820F911D63E070E09C
:1004B0000E948217882777FD8095982F0E9430151B
:1004C0000E946B150E9402156093A704F12FE0E0D3
:1004D000E60FF11DE05AFF4F80811F910895EFE96B
:1004E000F4E08150482F50E040565B4F90813181BD
:1004F000391740F0922F3196E417F50749F43A2F57
:10050000292FADCF308391833196E417F507B9F3E6
:10051000292FECCFDC9A82E390E00E941C0480E05B
:1005200090E00895FF920F931F93CF93DF93082FCE
:1005300010916904153039F0DC9A82E390E00E9452
:100540001C041091690407B987B1806C87B9EFE981
:10055000F4E0369A3699FECF94B185B18295880F32
:10056000880F807C96959695892B819384E0E43A58
:10057000F80779F73091A60494E024E007C0832FB0
:1005800090E0215027FD1DC0922F382F1916BCF77F
:10059000EFE9F4E09150492F50E09F5F40565B4FE8
:1005A00080816181681750F0832F3196E417F50739
:1005B00041F3382F808161816817B0F760838183B0
:1005C000F4CF8093A6042093A4049093A5042091D3
:1005D000A2048091A10490E0820F911D2091A004BB
:1005E000820F911D63E070E00E948217882777FDDB
:1005F0008095982F0E9430150E946B150E9402155D
:100600006093A704C02FD0E0FC2FEE27E60FF11D6A
:10061000E05AFF4FF080153009F0DC9880916B04B0
:100620008823B9F58FEFF81651F1013009F48DC028
:10063000013008F486C0023009F4A1C0033019F477
:1006400084E30E94220F8AE590E0C89F8001C99F41
:10065000100DD89F100D1124C8016F2D0E94300A73
:100660000E94260FC8016F2D0E94AF090E94260F1D
:100670008F2DDF91CF911F910F91FF900895013041
:1006800009F489C0013008F07EC085E30E94220F82
:1006900051C08AE00E94220F8DE00E94220F83E564
:1006A0000E94220F85E60E94220F8EE60E94220FF2
:1006B00083E70E94220F8FE60E94220F82E70E94AA
:1006C000220F802F0E942D0F8AE30E94220F80E2CA
:1006D0000E94220F8FEFF816E1F188E70E94220FA7
:1006E0008AE30E94220F8AE590E0C89F8001C99F9B
:1006F000100DD89F100D1124C8016F2D0E94300AD3
:100700000E94690F80E20E94220F89E70E94220F57
:100710008AE30E94220FC8016F2D0E94AF090E9438
:10072000690F80E20E94220F80E20E94220F80E285
:100730000E94220F8F2DDF91CF911F910F91FF907B
:10074000089581E30E94220F7ECF82E30E94220F50
:100750007ACF8EE60E94220F8FE60E94220F80E25F
:100760000E94220F84E60E94220F81E60E94220F3F
:1007700084E70E94220F81E60E94220FD2CF83E3FA
:100780000E94220F60CF023051F0033099F688E3C7
:100790000E94220FCFCF86E30E94220FCBCF87E3A8
:1007A0000E94220FC7CF84B38FEF84BB85B315BAE5
:1007B00008958230910561F18330910534F08330E2
:1007C000910581F10497D9F00895009769F0019798
:1007D000D9F782E08093670481E080936804A89A47
:1007E000A998AE9AAF98089581E08093670482E05B
:1007F00080936804A898A99AAE98AF9A0895109229
:10080000670410926804A89AA99AAE9AAF9A0895BC
:1008100081E08093670480936804A89AA998AE98B1
:10082000AF9A089582E08093670480936804A89843
:10083000A99AAE9AAF980895009761F020E030E051
:1008400040EA5FE0FA013197F1F72F5F3F4F281739
:100850003907C0F3089580E091EE0E94FF0E0E94D8
:100860006E0180E00E94030E0E94340E0E94D303AA
:100870000E94E90078940E94A3080895CF93DF9323
:100880000E942B0481E08093690480916B04813085
:1008900011F40E94D404C0EADFE00E94F30B8091BF
:1008A0006904843061F0853068F48230B0F30E94CE
:1008B00051070E94F30B809169048430A1F70E94D4
:1008C000D807EBCF853061F0883039F70E948A0273
:1008D0000E9499010E947C0181E080936904DDCF30
:1008E00080916B04813009F457C086E60E94220F84
:1008F0008091820490918304892B09F03EC00E946C
:100900008A0210926A0480E00E94920281E00E94B2
:10091000920282E00E94920283E00E9492020E9470
:10092000E00D20E030E0CE010197F1F72F5F3F4F5F
:10093000283C3105C1F780916A048F5F80936A0477
:10094000823108F30E947C0180E00E94A90D20E022
:1009500030E0CE010197F1F72F5F3F4F83E0283E53
:100960003807B9F781E08093690480916B04813086
:10097000B9F087E60E94220F90CF80E00E94A90D77
:1009800020E030E0CE010197F1F72F5F3F4F83E089
:10099000283E3807B9F7B3CF82E00E94D404A8CF2D
:1009A00083E00E94D40479CF863009F402C28730F4
:1009B00008F443C0893009F47BC18A3008F449C087
:1009C0008B3009F4A1C18B3008F02BC28AE00E9461
:1009D000220F8DE00E94220F82E50E94220F8FE6F7
:1009E0000E94220F84E70E94220F81E60E94220FBC
:1009F00084E70E94220F89E60E94220F8EE60E9461
:100A0000220F87E60E94220F80E20E94220F82E7D7
:100A10000E94220F89E60E94220F87E60E94220F81
:100A200088E60E94220F84E70E94220F8AE00E943B
:100A3000220F8DE00E94220F0895833009F48DC1AA
:100A40008430D8F1843009F4A6C0853009F468C038
:100A50000895873009F4FAC08830D1F78AE00E94FF
:100A6000220F8DE00E94220F83E50E94220F84E76F
:100A70000E94220F8FE60E94220F80E70E94220F21
:100A800080E70E94220F89E60E94220F8EE60E94D4
:100A9000220F87E60E94220F80E20E94220F82E747
:100AA0000E94220F8FE60E94220F82E60E94220FF0
:100AB0008FE60E94220F84E7B7CF813009F497C0F8
:100AC000823031F68AE00E94220F8DE00E94220FD0
:100AD00083E50E94220F84E70E94220F81E60E9494
:100AE000220F82E70E94220F84E70E94220F89E6EC
:100AF0000E94220F8EE60E94220F87E60E94220F9C
:100B000080E20E94220F83E70E94220F83E60E9468
:100B1000220F81E60E94220F8EE60E94220F089586
:100B20008AE00E94220F8DE00E94220F83E40E943F
:100B3000220F8FE60E94220F8CE60E94220F8CE685
:100B40000E94220F89E60E94220F83E70E94220F53
:100B500089E60E94220F8FE60E94220F8EE60E94F5
:100B6000220F80E20E94220F87E50E94220F81E679
:100B70000E94220F82E70E94220F8EE60E94220F1F
:100B800089E60E94220F8EE60E94220F87E60E94CD
:100B9000220F81E249CF8AE00E94220F8DE00E945D
:100BA000220F82E50E94220F8FE60E94220F82E62A
:100BB0000E94220F8FE60E94220F84E70E94220FDC
:100BC00080E20E94220F81E60E94220F82E70E94AB
:100BD000220F82E70E94220F89E60E94220F86E7F9
:100BE0000E94220F85E60E94220F84E61DCF8AE034
:100BF0000E94220F8DE00E94220F8CE40E94220F9F
:100C000085E60E94220F87E60E94220F8FE60E944F
:100C1000220F82E70E94220F8FE60E94220F82E6B7
:100C20000E94220F8FE60E94220F84E70E94220F6B
:100C300080E20E94220F82E30E94220F80E30E9442
:100C4000220F80E30E94220F87E3EECE8AE00E940B
:100C5000220F8DE00E94220F84E40E94220F82E77F
:100C60000E94220F89E60E94220F86E70E94220F2F
:100C700089E60E94220F8EE60E94220F87E60E94DC
:100C8000220F80E20E94220F86E60E94220F8FE64A
:100C90000E94220F82E70E94220F87E70E94220F04
:100CA00081E60E94220F82E70E94220F84E6BCCEDA
:100CB0008AE00E94220F8DE00E94220F82E50E94AE
:100CC000220F8FE60E94220F84E70E94220F81E606
:100CD0000E94220F84E70E94220F89E60E94220FC1
:100CE0008EE60E94220F87E60E94220F80E20E9479
:100CF000220F8CE60E94220F85E60E94220F86E6D4
:100D00000E94220F84E790CE8AE00E94220F8DE09D
:100D10000E94220F84E40E94220F82E70E94220F89
:100D200089E60E94220F86E70E94220F89E60E9430
:100D3000220F8EE60E94220F87E60E94220F80E299
:100D40000E94220F82E60E94220F81E60E94220F5B
:100D500083E60E94220F8BE69ECF8AE00E94220F3C
:100D60008DE00E94220F83E50E94220F83E60E94FD
:100D7000220F81E60E94220F8EE60E94220F80E25F
:100D80000E94220F86E60E94220F89E60E94220F0F
:100D90008EE60E94220F89E60E94220F83E70E94BE
:100DA000220F88E60E94220F85E60E94220F84E629
:100DB0003BCE8AE00E94220F8DE00E94220F83E446
:100DC0000E94220F8FE60E94220F8CE60E94220FC3
:100DD0008CE60E94220F89E60E94220F83E70E9480
:100DE000220F89E60E94220F8FE60E94220F8EE6D4
:100DF0000E94220F80E20E94220F85E40E94220FAF
:100E000082E70E94220F82E70E94220F8FE60E9453
:100E1000220F82E70E94220F81E20E94220F80E2CD
:100E200021CE8C3009F014CE8AE00E94220F8DE092
:100E30000E94220F82E50E94220F85E60E94220F67
:100E400083E70E94220F85E60E94220F84E70E941A
:100E5000220F85E60E94220F84E60E94220F80E284
:100E60000E94220F80E70E94220F8FE60E94220F2D
:100E700083E70E94220F89E60E94220F84E70E94E6
:100E8000220F89E60E94220F8FE60E94220F8EE633
:100E90000E94220F8AE00E94220F8DE00E94220F02
:100EA00008956F927F928F929F92AF92BF92CF924E
:100EB000DF92EF92FF920F931F9360916C0470E0AA
:100EC00080E090E00E942E152BED3FE049EC50E4CD
:100ED0000E949C1620E030E044E353E40E94951405
:100EE0005B016C0160907E0470907F0480908004B0
:100EF00090908104A40193010E94C7137B018C018F
:100F00002BED3FE049E450E40E9491161816B4F12D
:100F1000C801B7012BED3FE049E450EC0E948E146C
:100F20008823ECF1C601B50125E33AEF4EE05DE31D
:100F30000E94C8139B01AC01C401B3010E94911629
:100F40001816E4F0C601B50125E33AEF4EE05DE383
:100F50000E94C7139B01AC01C401B3010E948E140F
:100F60008823ECF0809169048330F1F081E0809374
:100F7000690484E090E00E94D90304C081E090E01D
:100F80000E94D9031F910F91FF90EF90DF90CF90B7
:100F9000BF90AF909F908F907F906F90089580E06A
:100FA00090E00E94D903EECF84E080936904E1CF02
:100FB0006F927F928F929F92AF92BF92CF92DF9269
:100FC000EF92FF920F931F9390916004913009F478
:100FD00087C0923069F01F910F91FF90EF90DF90E2
:100FE000CF90BF90AF909F908F907F906F9008951B
:100FF00060916E0470916F048091700490917104FF
:1010000020917604309177044091780450917904CE
:101010000E94C7137B018C0160917204709173046C
:10102000809174049091750420917A0430917B042E
:1010300040917C0450917D040E94C7135B016C01B8
:1010400080916D04992787FD9095889FB001899FB5
:10105000700D989F700D1124882777FD8095982F2B
:101060000E9430153B014C01C801B701A80197014E
:101070000E949C1620E030E048EC52E40E94951457
:101080007B018C01C601B501A60195010E949C1649
:1010900020E030E048EC52E40E9495149B01AC0142
:1010A000C801B7010E94C8139B01AC01C401B30180
:1010B0000E948E1418160CF48ECF81E08093690480
:1010C0008093600410926D0484E090E00E94D90344
:1010D00080916B04813099F181E70E94220F7BCFD0
:1010E00080916D04882319F49093690474CF8091E2
:1010F000760490917704A0917804B091790480935C
:101100006E0490936F04A0937004B0937104809167
:101110007A0490917B04A0917C04B0917D0480932B
:10112000720490937304A0937404B093750482E0E6
:101130008093600482E090E00E94D9034CCF84E069
:101140000E94D40448CF80E090E0A0E0B0E080931B
:10115000760490937704A0937804B09379048093F5
:101160007A0490937B04A0937C04B0937D048093D5
:101170007E0490937F04A0938004B0938104109226
:1011800086041092850410928804109287041092AD
:101190008A041092890410928C0410928B0410928D
:1011A0006304109262041092650410926404109219
:1011B00084040895AF92BF92CF92DF92EF92FF9294
:1011C0000F931F937B015A01AA2797FDA095BA2F71
:1011D000BC01CD010E9430156093760470937704B2
:1011E00080937804909379040027F7FC0095102FE2
:1011F000C801B7010E94301560937A0470937B0494
:1012000080937C0490937D04CC24B7FCC094DC2CA8
:10121000C601B5010E94301520E030E04AE754E4F1
:101220000E94951460937E0470937F0480938004E1
:10123000909381041F910F91FF90EF90DF90CF90DA
:10124000BF90AF9008956F927F928F929F92AF92CE
:10125000BF92CF92DF92EF92FF920F931F937B0189
:10126000AA2797FDA095BA2FBC01CD010E94301589
:10127000209176043091770440917804509179045C
:101280000E94C7133B014C010027F7FC0095102F6B
:10129000C801B7010E94301520917A0430917B0477
:1012A00040917C0450917D040E94C7135B016C0146
:1012B000A40193010E943B1420E030E044E353E496
:1012C0000E949C162BED3FE049E450E40E949514E7
:1012D0000E94FD149B0177FF02C028593E4F83E016
:1012E00080936904B90137FD37C0759567956093A0
:1012F0006C04C401B301A40193010E949C1620E078
:1013000030E048EC52E40E9495147B018C01C60148
:10131000B501A60195010E949C1620E030E048EC42
:1013200052E40E9495149B01AC01C801B7010E94D0
:10133000C8130E9409170E94FD1460936D041F9149
:101340000F91FF90EF90DF90CF90BF90AF909F9064
:101350008F907F906F9008956F5F7F4FC6CF2F92D1
:101360003F924F925F926F927F928F929F92AF9235
:10137000BF92CF92DF92EF92FF920F931F934C0197
:10138000E62EA0907E04B0907F04C0908004D090A0
:101390008104C601B5010E94FF161B012C0160915A
:1013A000820470918304680D791D882777FD8095EC
:1013B000982F0E9430152BED3FE049E450E40E9445
:1013C0009C1620E030E044E353E40E949514A6010B
:1013D00095010E94C8130E94FF163B014C01C201F7
:1013E000B10120E030E040E052EC0E949C162091D8
:1013F0007A0430917B0440917C0450917D040E94DA
:10140000C8135B016C0182E0E80EFF2400E010E0ED
:10141000C801B7010E942E1520E030E040E251E4FF
:101420000E949C16A40193010E949C169B01AC0192
:10143000C601B5010E94C8130E94FD14CB011F9183
:101440000F91FF90EF90DF90CF90BF90AF909F9063
:101450008F907F906F905F904F903F902F90089566
:101460002F923F924F925F926F927F928F929F92B4
:10147000AF92BF92CF92DF92EF92FF920F931F93A2
:101480004C01E62EA0907E04B0907F04C0908004B2
:10149000D0908104C601B5010E9492141B012C0159
:1014A0006091820470918304680D791D882777FD0F
:1014B0008095982F0E94301520E030E044E353E4FB
:1014C0000E9495142BED3FE049E450E40E949C16E5
:1014D000A60195010E94C8130E9492143B014C0181
:1014E000C201B10120E030E040E052EC0E949C16C5
:1014F00020917604309177044091780450917904DA
:101500000E94C8135B016C0182E0E80EFF2400E03A
:1015100010E0C801B7010E942E1520E030E040E243
:1015200051E40E949C16A40193010E949C169B0109
:10153000AC01C601B5010E94C8130E94FD14CB0185
:101540001F910F91FF90EF90DF90CF90BF90AF90E1
:101550009F908F907F906F905F904F903F902F90D3
:1015600008952F923F924F925F926F927F928F9247
:101570009F92AF92BF92CF92DF92EF92FF920F9322
:101580001F93DC01FB017A01890190916904892F85
:101590008250823008F404C1943009F4CDC0EA1BB3
:1015A000FB0BBF01882777FD8095982F0E9430158F
:1015B00028EB3EE145E45FE30E949C163B014C01B1
:1015C0000E191F09B801882777FD8095982F0E9472
:1015D000301528EB3EE145E45FE30E949C167B0159
:1015E0008C01C801B701A40193010E94C81320E037
:1015F00030E040E05FE30E949C165B016C01C80193
:10160000B701A40193010E94C7132AE63EE74DE308
:1016100053E40E9495143B014C0120907E043090CD
:101620007F04409080045090810420E030E040E04E
:101630005FE30E949C16A20191010E94C8137B01E6
:101640008C01C8010E949214A60195010E949C166B
:101650009B01AC01609176047091770480917804CD
:10166000909179040E94C813609376047093770474
:101670008093780490937904B701C8010E94FF1603
:10168000A60195010E949C169B01AC0160917A0411
:1016900070917B0480917C0490917D040E94C8131A
:1016A00060937A0470937B0480937C0490937D0410
:1016B000C401B301A20191010E94C8137B018C01F6
:1016C00060937E0470937F048093800490938104E0
:1016D0002BED3FE049EC50E40E94911688230CF07A
:1016E0004EC0C801B70120E030E040E050E00E9469
:1016F0008E14882384F4C801B7012BED3FE049EC38
:1017000050E40E94C81360937E0470937F0480931A
:101710008004909381041F910F91FF90EF90DF90D0
:10172000CF90BF90AF909F908F907F906F905F9081
:101730004F903F902F900895EA1BFB0BBF01882725
:1017400077FD8095982F0E94301526E636E646E410
:101750005FE30E949C163B014C010E191F09B80162
:10176000882777FD8095982F0E94301526E636E66B
:1017700046E45FE30E949C167B018C0132CFC801D6
:10178000B7012BED3FE049EC50E40E94C713609392
:101790007E0470937F048093800490938104BBCF78
:1017A000EA1BFB0BBF01882777FD8095982F0E94CD
:1017B00030152DEC3CEC4CE25FE30E949C163B01A3
:1017C0004C010E191F09B801882777FD8095982FC5
:1017D0000E9430152DEC3CEC4CE25FE30E949C161D
:1017E0007B018C01FECE2F923F924F925F926F92BF
:1017F0007F928F929F92AF92BF92CF92DF92EF92A1
:10180000FF920F931F93DF93CF9300D000D0CDB7FB
:10181000DEB780916404909165049A8389839093E4
:101820008A0480938904E0916204F0916304FC834C
:10183000EB83F0938C04E0938B042091850430912A
:101840008604009187041091880490916904892F7F
:101850008250823008F458C1943009F41FC1698164
:101860007A81621B730B882777FD8095982F0E94E1
:10187000301528EB3EE145E45FE30E949C163B01F6
:101880004C016B817C81601B710B882777FD8095F3
:10189000982F0E94301528EB3EE145E45FE30E945B
:1018A0009C167B018C01C801B701A40193010E9421
:1018B000C81320E030E040E05FE30E949C165B012B
:1018C0006C01C801B701A40193010E94C7132AE665
:1018D0003EE74DE353E40E9495143B014C012090F8
:1018E0007E0430907F04409080045090810420E07A
:1018F00030E040E05FE30E949C16A20191010E944B
:10190000C8137B018C01C8010E9492149B01AC0199
:10191000C601B5010E949C169B01AC016091760442
:101920007091770480917804909179040E94C81393
:10193000609376047093770480937804909379048D
:10194000B701C8010E94FF169B01AC01C601B50199
:101950000E949C169B01AC0160917A0470917B04FB
:1019600080917C0490917D040E94C81360937A0456
:1019700070937B0480937C0490937D04C401B30135
:10198000A20191010E94C8137B018C0160937E0427
:1019900070937F0480938004909381042BED3FE04B
:1019A00049EC50E40E94911688230CF09CC0C801B9
:1019B000B70120E030E040E050E00E948E14882320
:1019C00084F4C801B7012BED3FE049EC50E40E94DC
:1019D000C81360937E0470937F0480938004909377
:1019E000810489819A819093860480938504EB8198
:1019F000FC81F0938804E093870480918404882319
:101A0000B1F180E090E0A0E0B0E0809376049093A4
:101A10007704A0937804B093790480937A04909328
:101A20007B04A0937C04B0937D0480937E04909308
:101A30007F04A0938004B0938104109286041092D6
:101A40008504109288041092870410928A041092E0
:101A5000890410928C0410928B04109263041092EB
:101A600062041092650410926404109284040F9032
:101A70000F900F900F90CF91DF911F910F91FF90DA
:101A8000EF90DF90CF90BF90AF909F908F907F901E
:101A90006F905F904F903F902F90089569817A8169
:101AA000621B730B882777FD8095982F0E94301555
:101AB00026E636E646E45FE30E949C163B014C01B5
:101AC0006B817C81601B710B882777FD8095982F37
:101AD0000E94301526E636E646E45FE30E949C1637
:101AE0007B018C01E0CEC801B7012BED3FE049EC52
:101AF00050E40E94C71360937E0470937F04809328
:101B00008004909381046DCF69817A81621B730B8D
:101B1000882777FD8095982F0E9430152DEC3CEC9E
:101B20004CE25FE30E949C163B014C016B817C817F
:101B3000601B710B882777FD8095982F0E943015C8
:101B40002DEC3CEC4CE25FE30E949C167B018C0187
:101B5000AACE863A0CF486EA8B350CF08AE5282F5B
:101B6000332727FD309585E890E0AC01249FC00124
:101B7000259F900D349F900D11246AE070E00E9423
:101B800082176D59744F79BD68BD309383042093DB
:101B9000820408951F920F920FB60F921124C09ADB
:101BA0000F900FBE0F901F9018951F920F920FB6B7
:101BB0000F921124C0980F900FBE0F901F90189590
:101BC000209182042B5F263A0CF426EA2B350CF088
:101BD0002AE5332727FD309585E890E0AC01249F66
:101BE000C001259F900D349F900D11246AE070E094
:101BF0000E9482176D59744F79BD68BD309383047C
:101C0000209382040895482F8AE08EBD88E189BF21
:101C1000B89A80E49CE99BBD8ABD242F463A0CF417
:101C200026EA2B350CF02AE5332727FD309585E889
:101C300090E0BC01269FC001279F900D369F900D1C
:101C400011246AE070E00E9482176D59744F79BDCB
:101C500068BD842F992787FD909590938304809386
:101C6000820480E090E0089588B78B7F88BF88B7B2
:101C7000816088BF83B7856083BF89B7816089BF72
:101C800012BE089512BE1092AB041092AA04892BC2
:101C900009F40895FFCF1F920F920FB60F921124EF
:101CA000EF92FF920F931F932F933F934F935F9366
:101CB0006F937F938F939F93AF93BF93EF93FF9314
:101CC0008091AA049091AB0401969093AB04809309
:101CD000AA04CD9750F0809169048430D9F0863001
:101CE000C9F01092AB041092AA04FF91EF91BF913A
:101CF000AF919F918F917F916F915F914F913F91A4
:101D00002F911F910F91FF90EF900F900FBE0F90AA
:101D10001F90189580918204909183040397B4F5E5
:101D2000109167041130D1F11230D9F682E00E948F
:101D30009202E82E81E00E94920283E00E949202C9
:101D4000FF240027F7FC0095102FC801B7010E945F
:101D500030157B018C0120E030E04CE851E40E941A
:101D60008E148823CCF1C801B70120E030E044EBA9
:101D700051E40E948E1488230CF0B3CF80916B0441
:101D80008130C9F187E70E94220FABCF80E00E942B
:101D9000A90D84EF91E00E941C04C2CF80E00E9454
:101DA0009202082F81E00E94920283E00E94920238
:101DB000003120F0053108F094CFE0CF84E090E0CE
:101DC0000E94D9031093690480916B04813079F0EB
:101DD00085E60E94220F85CF84E090E00E94D9031F
:101DE00081E08093690480916B04813089F786E0FB
:101DF0000E94D40476CF85E00E94D40472CF2BE4F5
:101E000080309207E1F02BE48130920738F026E928
:101E10008030920789F08050914E59F08FEC89B94B
:101E200082E08BB988E98AB98898899A80E090E045
:101E3000089582E289B9F4CF83E389B9F1CF87E6C7
:101E400089B9EECF5D9BFECF8CB908955D9BFECF27
:101E50009CB95D9BFECF8CB90895482F8436D0F095
:101E600064E60E946217282F5D9BFECF205D2CB98F
:101E700020538CE99FEF289F802D1124480F4A3072
:101E800078F45D9BFECF80E38CB95D9BFECF405D17
:101E90004CB908955D9BFECF80E38CB94A3088F33E
:101EA000842F6AE00E946217282F5D9BFECF205D81
:101EB0002CB92053822F90E09C01220F331F220F58
:101EC000331F220F331F880F991F280F391F421B02
:101ED000DCCFFC0197FD52C05D9BFECF80E28CB948
:101EE00047E2E031F4070CF455C0CF0160E177E23E
:101EF0000E9482179B015D9BFECF822F805D8CB973
:101F000080E197E2AC01249FC001259F900D349F92
:101F1000900D1124E81BF90B53E0E83EF5070CF097
:101F200042C05D9BFECF80E38CB9E436F1050CF432
:101F300055C0CF0164E670E00E9482179B015D9B53
:101F4000FECF822F805D8CB984E690E0AC01249FA7
:101F5000C001259F900D349F900D1124E81BF90BB3
:101F6000EA30F1050CF042C05D9BFECF80E38CB9F6
:101F70005D9BFECF8E2F805D8CB908955D9BFECF5B
:101F80008DE28CB9F095E195FF4F47E2E031F4071F
:101F90000CF0ABCF5D9BFECF80E38CB953E0E83E05
:101FA000F5070CF4BECFCF0168EE73E00E948217F4
:101FB0009B015D9BFECF822F805D8CB988EE93E004
:101FC000AC01249FC001259F900D349F900D1124DA
:101FD000E81BF90BE436F1050CF0ABCF5D9BFECFAF
:101FE00080E38CB9EA30F1050CF4BECFCF016AE092
:101FF00070E00E9482175D9BFECF605D6CB96053FC
:10200000CB019C01220F331F220F331F220F331FDE
:10201000880F991F280F391FE21BF30BA9CFA82F98
:1020200080919004853009F475C0863090F0883036
:1020300009F458C08930E8F4863009F44DC087307F
:1020400029F4A093940486E08093900480E090E0CB
:102050000895823009F458C08330B0F0833009F419
:1020600047C0843099F7A093940483E08093900450
:10207000EDCF893009F442C08A3041F7A09396042D
:1020800089E080939004E2CF8823D1F08130F1F68B
:10209000A093910480918F04893609F42AC38A366B
:1020A00008F446C0813709F4FBC2823708F0E6C263
:1020B0008A3609F411C35D9BFECF8EE68CB947C00A
:1020C0008A2F90E0FC013197EA37F10548F15D9BDA
:1020D000FECF8EE68CB9BACFA093960485E08093AC
:1020E0009004B4CFA093950487E080939004AECF82
:1020F000A093930482E080939004A8CFA0939604C9
:1021000088E080939004A2CFA093920481E0809312
:1021100090049CCFA093950484E08093900496CF84
:10212000E65DFF4FEE0FFF1F0590F491E02D09943F
:10213000873609F4E4C2883608F4ABC282E08093A3
:102140006904A0936C045D9BFECF81E68CB910926C
:102150008F04109290047ACF5D9BFECF8BE68CB9F2
:102160005D9BFECF8BE68CB971CF10926B046ECF66
:1021700086E780938F0481E08093900467CF8091FD
:102180006B04813041F0909182045D9BFECF8AE523
:10219000891B8CB9BBCF5D9BFECF8AE08CB95D9B60
:1021A000FECF8DE08CB95D9BFECF82E58CB95D9B47
:1021B000FECF81E68CB95D9BFECF84E68CB95D9B3A
:1021C000FECF81E68CB95D9BFECF82E78CB95D9B2B
:1021D000FECF81E68CB95D9BFECF8EE68CB95D9B10
:1021E000FECF87E68CB95D9BFECF8CE68CB95D9BFC
:1021F000FECF85E68CB95D9BFECF8AE38CB95D9BF3
:10220000FECF80E28CB9909182048AE5891B0E94FE
:102210002D0F5D9BFECF8AE08CB95D9BFECF8DE0DC
:102220008CB974CF84E090E00E94D90381E0809360
:10223000690480916B04813009F008CF88E00E9426
:10224000D40404CF82E780938F0481E080939004CC
:10225000FDCE81E780938F0486E080939004F6CED4
:1022600080916B04813009F441C05D9BFECF80E713
:102270008CB9609176047091770480917804909184
:1022800079040E940215862F672F5D9BFECF6CB9E3
:102290005D9BFECF8CB960917A0470917B04809134
:1022A0007C0490917D040E940215862F672F5D9B10
:1022B000FECF6CB95D9BFECF8CB960917E047091AE
:1022C0007F04809180049091810420E030E04AE70F
:1022D00054E40E949C160E940215862F672F5D9B76
:1022E000FECF6CB95D9BFECF8CB9B0CE5D9BFECFAF
:1022F0008AE08CB95D9BFECF8DE08CB95D9BFECFF3
:1023000080E58CB95D9BFECF8FE68CB95D9BFECFDF
:1023100083E78CB95D9BFECF8AE38CB95D9BFECFD2
:1023200080E28CB95D9BFECF88E78CB95D9BFECFC8
:102330008AE38CB960917604709177048091780477
:10234000909179040E940215DC01CB010E94690F73
:102350005D9BFECF80E28CB95D9BFECF89E78CB997
:102360005D9BFECF8AE38CB960917A0470917B0407
:1023700080917C0490917D040E940215DC01CB01C8
:102380000E94690F5D9BFECF80E28CB95D9BFECF02
:1023900084E58CB95D9BFECF88E68CB95D9BFECF52
:1023A00085E68CB95D9BFECF84E78CB95D9BFECF43
:1023B00081E68CB95D9BFECF8AE38CB960917E0487
:1023C00070917F04809180049091810420E030E03E
:1023D00044E353E40E949C162BED3FE049E450E4B3
:1023E0000E9495140E940215DC01CB010E94690F26
:1023F0005D9BFECF8AE08CB95D9BFECF8DE08CB9F2
:1024000025CE83E090E00E94D90387E080936904A1
:1024100080916B04813009F019CE8BE00E94D404C6
:1024200015CE82E090E00E94D90386E08093690493
:1024300080916B04813009F009CE87E00E94D404BA
:1024400005CE81E080936B040E94D404FFCD8AE620
:1024500080938F0481E080939004F8CD89E6809387
:102460008F0481E080939004F1CD88E680938F04FF
:1024700081E080939004EACD87E680938F0484E026
:1024800080939004E3CD85E080936904DFCD81E003
:1024900090E00E94D90386E08093690480916B04E8
:1024A000813009F0D3CD8AE00E94D404CFCD81E001
:1024B0008093840480916B04813009F0C7CD8CE057
:1024C0000E94D404C3CD80916B04813059F05D9B90
:1024D000FECF83E78CB9809169045D9BFECF805D60
:1024E0008CB9B4CD5D9BFECF8AE08CB95D9BFECFED
:1024F0008DE08CB95D9BFECF82E58CB95D9BFECFF4
:102500008FE68CB95D9BFECF82E68CB95D9BFECFDA
:102510008FE68CB95D9BFECF84E78CB95D9BFECFC7
:1025200083E78CB95D9BFECF84E78CB95D9BFECFC2
:1025300081E68CB95D9BFECF84E78CB95D9BFECFB5
:1025400085E78CB95D9BFECF83E78CB95D9BFECFA1
:102550008AE38CB95D9BFECF80E28CB980916904DF
:102560000E942D0F5D9BFECF8AE08CB95D9BFECF54
:1025700045CF80E090E00E94D90386E08093690413
:1025800080916B04813009F061CD89E00E94D40410
:102590005DCD85E380938F0481E08093900456CDD8
:1025A00080916904853009F451CD83E00E94920244
:1025B00080916B04813009F049CD5D9BFECF8AE0AC
:1025C0008CB95D9BFECF1ACF80916904853009F4E8
:1025D0003DCD82E00E94920280916B04813009F02F
:1025E00035CD5D9BFECF8AE08CB95D9BFECF06CFDB
:1025F00080916904853009F429CD81E00E9492021E
:1026000080916B04813009F021CD5D9BFECF8AE083
:102610008CB95D9BFECFF2CE2091620430916304B1
:102620005D9BFECF832F992787FD9A958CB95D9B83
:10263000FECF2CB90BCD80916904853009F406CD0D
:1026400080E00E94920280916B04813009F0FECC00
:102650005D9BFECF8AE08CB95D9BFECFCFCE2091F3
:102660006404309165045D9BFECF832F992787FD1D
:102670009A958CB95D9BFECF2CB9E8CC823709F4D2
:1026800052C0863709F017CDA0939E045D9BFECF04
:102690005CCD853309F00FCDA5BB5D9BFECF55CD3D
:1026A0009091960480E0E0919504F0E0709194049C
:1026B00060E02091930430E0622B732B4A2F50E0AE
:1026C0003091920420E0422B532B8E2B9F2B0E94A3
:1026D000DA085D9BFECF39CD80916904825082304B
:1026E00068F184E080936904A0936D045D9BFECF44
:1026F0002CCD88E080936904A093660428CD909146
:10270000940480E04091930450E06A2F70E030918F
:10271000920420E0622B732B842B952B0E942309BB
:102720005D9BFECF12CD8AE58A1B0E94A90D88EE23
:1027300093E00E941C045D9BFECF07CD83E0809355
:102740006904D2CF1F920F920FB60F9211242F93CC
:102750003F934F935F936F937F938F939F93AF9329
:10276000BF93EF93FF938CB10E940F10FF91EF91F5
:10277000BF91AF919F918F917F916F915F914F9199
:102780003F912F910F900FBE0F901F9018955058AA
:10279000BB27AA270ED063C22CD230F031D220F052
:1027A00031F49F3F11F41EF4FCC10EF4E095E7FBF9
:1027B000C9C1E92F76D280F3BA176207730784077D
:1027C000950718F071F49EF5A5C20EF4E0950B2E56
:1027D000BA2FA02D0B01B90190010C01CA01A00173
:1027E0001124FF27591B99F0593F50F4503E68F1CE
:1027F0001A16F040A22F232F342F4427585FF3CF0F
:10280000469537952795A795F0405395C9F77EF4DF
:102810001F16BA0B620B730B840BBAF09150A1F028
:10282000FF0FBB1F661F771F881FC2F70EC0BA0FAE
:10283000621F731F841F48F4879577956795B79536
:10284000F7959E3F08F0B3CF9395880F08F099272E
:10285000EE0F979587950895CCD158F080E891E0D8
:1028600009F49EEFCDD128F040E851E059F45EEF35
:1028700009C097C14FC2E92FE07813D268F3092E3F
:10288000052AC1F3261737074807590738F00E2ED7
:1028900007F8E02569F0E025E0640AC0EF6307F877
:1028A000009407FADB01B9019D01DC01CA01AD0109
:1028B000EF934AD0D4D10AD05F91552331F02BED5C
:1028C0003FE049E450FD49EC63CF0895DF93DD27F5
:1028D000B92FBF7740E85FE31616170648075B0776
:1028E00010F4D92F22D29F938F937F936F93CFD2DF
:1028F000E8E4F1E059D1B3D12F913F914F915F912D
:1029000027D2DD2349F09058A2EA2AED3FE049ECB6
:102910005FE3D0785D274DDFDF91A1C1EFD008F4F0
:1029200081E0089575D1E395ABC10CD098C168D111
:1029300040F05FD130F021F45F3F19F003C1511135
:10294000EAC12FC1AED198F39923C9F35523B1F34E
:10295000951B550BBB27AA2762177307840738F00E
:102960009F5F5F4F220F331F441FAA1FA9F333D06D
:102970000E2E3AF0E0E830D091505040E695001C21
:10298000CAF729D0FE2F27D0660F771F881FBB1FDD
:10299000261737074807AB07B0E809F0BB0B802DB7
:1029A000BF01FF2793585F4F2AF09E3F510568F003
:1029B000C9C0B1C15F3FECF3983EDCF386957795D3
:1029C0006795B795F7959F5FC9F7880F911D969505
:1029D000879597F90895E1E0660F771F881FBB1F61
:1029E000621773078407BA0720F0621B730B840B0E
:1029F000BA0BEE1F88F7E095089504D06894B111E2
:102A00008AC1089556D188F09F5790F0B92F992721
:102A1000B751A0F0D1F0660F771F881F991F1AF0E9
:102A2000BA95C9F712C0B13081F074D1B1E0089500
:102A300071C1672F782F8827B85F39F0B93FCCF381
:102A4000869577956795B395D9F73EF490958095DF
:102A5000709561957F4F8F4F9F4F0895E89409C0FF
:102A600097FB3EF490958095709561957F4F8F4FC1
:102A70009F4F9923A9F0F92F96E9BB279395F695D7
:102A8000879577956795B795F111F8CFFAF4BB0F55
:102A900011F460FF1BC06F5F7F4F8F4F9F4F16C0B9
:102AA000882311F096E911C0772321F09EE8872F43
:102AB000762F05C0662371F096E8862F70E060E0FF
:102AC0002AF09A95660F771F881FDAF7880F969578
:102AD000879597F9089507D180F09F3740F49111B9
:102AE0000EF019C160E070E080E89FEB089526F4D5
:102AF0001B16611D711D811D2BC045C0990F00085B
:102B0000550FAA0BE0E8FEEF16161706E807F907BF
:102B1000C0F012161306E407F50798F0621B730B5A
:102B2000840B950B39F40A2661F0232B242B252BDB
:102B300021F408950A2609F4A140A6958FEF811D7E
:102B4000811D089597F99F6780E870E060E008951F
:102B5000882371F4772321F09850872B762F07C0B4
:102B6000662311F499270DC09051862B70E060E028
:102B70002AF09A95660F771F881FDAF7880F9695C7
:102B8000879597F908959F3F31F0915020F48795EC
:102B900077956795B795880F911D9695879597F9C5
:102BA00008959FEF80EC0895DF93CF931F930F93C9
:102BB000FF92EF92DF927B018C01689405C0DA2EC0
:102BC000EF01C6D0FE01E894A5912591359145917C
:102BD0005591AEF3EF01EDDDFE019701A801DA9406
:102BE00079F7DF90EF90FF900F911F91CF91DF91D8
:102BF000089500240A941616170618060906089563
:102C000000240A9412161306140605060895C9CF67
:102C100050D0E8F3E894E0E0BB279F57F0F02AEDAE
:102C20003FE049EC06C0EE0FBB0F661F771F881F01
:102C300028F0B23A62077307840728F0B25A620B91
:102C4000730B840BE3959A9572F7803830F49A955C
:102C5000BB0F661F771F881FD2F7904896CF092EAB
:102C60000394000C11F4882352F0BB0F40F4BF2BE7
:102C700011F460FF04C06F5F7F4F8F4F9F4F089527
:102C8000EF93E0FF06C0A2EA2AED3FE049EC5FEBDC
:102C900090DDE5DF0F90039401FC9058E5E7F1E04B
:102CA00000C157FD9058440F551F59F05F3F71F018
:102CB0004795880F97FB991F61F09F3F79F08795A3
:102CC0000895121613061406551FF2CF4695F1DF2C
:102CD00008C0161617061806991FF1CF86957105BC
:102CE000610508940895E5DFA0F0BEE7B91788F400
:102CF000BB279F3860F41616B11D672F782F8827E1
:102D0000985FF7CF869577956795B11D939596391E
:102D1000C8F30895E894BB2766277727CB0197F976
:102D20000895ECDE08F48FEF08959B01AC0160E09C
:102D300070E080E89FE3F9CD0BD091CF5ADF28F007
:102D40005FDF18F0952309F0FDCE2BCF1124E3CFE0
:102D5000A8DFA0F3959FD1F3950F50E0551F629F18
:102D6000F001729FBB27F00DB11D639FAA27F00DE4
:102D7000B11DAA1F649F6627B00DA11D661F829F0B
:102D80002227B00DA11D621F739FB00DA11D621FF0
:102D9000839FA00D611D221F749F3327A00D611D0D
:102DA000231F849F600D211D822F762F6A2F1124EF
:102DB0009F5750408AF0E1F088234AF0EE0FFF1F42
:102DC000BB1F661F771F881F91505040A9F79E3F79
:102DD000510570F0B7CE9FCF5F3FECF3983EDCF328
:102DE000869577956795B795F795E7959F5FC1F7B6
:102DF000FE2B880F911D9695879597F908959F93BF
:102E000007DF0F9007FCEE5F3BCF11F40EF4C9CE45
:102E1000BACE4FDFD0F39923D9F3CEF39F57550B9A
:102E200087FF38D00024A0E640EA900180585695EC
:102E3000979528F4805C660F771F881F20F026176F
:102E40003707480730F4621B730B840B20293129A4
:102E50004A2BA69517940794202531254A2758F721
:102E6000660F771F881F20F026173707480730F4B2
:102E7000620B730B840B200D311D411DA09581F752
:102E8000B901842F9158880F9695879508959B01D5
:102E9000AC0152CF91505040660F771F881FD2F778
:102EA00008959F938F937F936F93FF93EF939B016D
:102EB000AC0142DFEF91FF9177DE2F913F914F916F
:102EC0005F913ACF991B79E004C0991F961708F0DB
:102ED000961B881F7A95C9F780950895AA1BBB1B7E
:102EE00051E107C0AA1FBB1FA617B70710F0A61B0A
:102EF000B70B881F991F5A95A9F780959095BC012B
:102F0000CD01089597FB092E07260AD077FD04D03E
:102F1000E5DF06D000201AF4709561957F4F089583
:102F2000F6F7909581959F4F0895F894FFCFFFFF96
:102F3000FFFFFFFFFFFFFFFFFFFFFFFFFFFFFFFFA1
:102F4000FFFFFFFFFFFFFFFFFFFFFFFFFFFFFFFF91
:102F5000FF504D4B4948464442413F3E3C3B3A3886
:102F600037363534333231302F2E2D2D2C2B2A2A63
:102F70002928282727262525242423232222222105
:102F8000212020201F1F1E1E1E1D1D1D1C1C1C1C61
:102F90001B1B1B1A1A1A1A1919191918181818179D
:102FA00017171717161616161515151515151414C7
:102FB00014141413131313131313121212121212E4
:102FC00012111111111111111010101010101010F8
:102FD00010100F0F0F0F0F0F0F0F0F0F0E0E0E0E03
:102FE0000E0E0E0E0E0E0E0E0E0D0D0D0D0D0D0D08
:102FF0000D0D0D0D0D0D0D0C0C0C0C0C0C0C0C0C0A
:103000000C0C0C0C0C0B0B0B0B0B0B0B0B0B0B0B0B
:103010000B0B0B0B0B0A0A0A0A0A0A0A0A0A0AFF16
:10302000FFFFFFFFFFFFFFFFFFFFFFFFFFFFFFFFB0
:10303000FFFFFFFFFFFFFFFFFFFFFFFFFFFFFFFFA0
:10304000FFFFFFFFFFFFFFFFFFFFFFFFFFFFFFFF90
:10305000FF4F4D4B4947464442413F3E3C3B3A3986
:103060003736353433323130302F2E2D2C2C2B2A5D
:103070002A292828272726262525242423232222F7
:1030800021212020201F1F1F1E1E1D1D1D1C1C1C5A
:103090001B1B1B1B1A1A1A1919191918181818179B
:1030A00017171717161616161615151515151414C5
:1030B00014141414141313131313131212121212E0
:1030C00012121211111111111111111010101010F2
:1030D0001010100F0F0F0F0F0F0F0F0F0E0E0E0E01
:1030E0000E0E0E0E0E0E0D0D0D0D0D0D0D0D0D0D0A
:1030F0000D0D0D0C0C0C0C0C0C0C0C0C0C0C0C0C0D
:103100000C0C0C0C0C0C0C0B0B0B0B0B0B0B0B0B08
:103110000B0A0A0AFFFFFFFFFFFFFFFFFFFFFFFF92
:10312000FFFFFFFFFFFFFFFFFFFFFFFFFFFFFFFFAF
:10313000FFFFFFFFFFFFFFFFFFFFFFFFFFFFFFFF9F
:10314000FFFFFFFFFFFFFFFFFFFFFFFFFFFFFFFF8F
:10315000FFE1504D4A48464442403F3D3C3A3938F1
:10316000373534333231302F2E2D2D2C2B2A2A296E
:10317000282827262625252424232322222121210D
:1031800020201F1F1F1E1E1E1D1D1D1C1C1C1B1B67
:103190001B1A1A1A1A1919191918181818171717A3
:1031A00017171616161615151515151514141414CB
:1031B00014131313131313131212121212121211E7
:1031C00011111111111111101010101010101010F8
:1031D0000F0F0F0F0F0F0F0F0F0F0E0E0E0E0E0E05
:1031E0000E0E0E0E0E0D0D0D0D0D0D0D0D0D0D0D0A
:1031F0000D0C0C0C0C0C0C0C0C0C0C0C0C0C0C0C0E
:103200000B0B0B0B0B0B0B0B0B0B0B0B0B0B0B0B0E
:103210000B0B0B0B0A0A0A0A0A0A0A0AFFFFFFFF36
:10322000FFFFFFFFFFFFFFFFFFFFFFFFFFFFFFFFAE
:10323000FFFFFFFFFFFFFFFFFFFFFFFFFFFFFFFF9E
:10324000FFFFFFFFFFFFFFFFFFFFFFFFFFFFFFFF8E
:10325000FFFFFFFFFFFF4F4D4B49484644434140AE
:103260003F3D3C3B3A393736353433323231302FFB
:103270002E2D2D2C2B2A2A292828272726262524BF
:1032800024232323222221212020201F1F1E1E1E33
:103290001D1D1D1C1C1C1B1B1B1B1A1A1A1919197E
:1032A00019181818181817171717161616161615AE
:1032B00015151515151414141414141313131313CE
:1032C00013131212121212121211111111111111E3
:1032D00011101010101010101010100F0F0F0F0FF2
:1032E0000F0F0F0F0F0E0E0E0E0E0E0E0E0E0E0EF9
:1032F0000E0D0D0D0D0D0D0D0D0D0D0D0D0D0C0CFF
:103300000C0C0C0C0C0C0C0C0C0C0C0C0C0C0B0BFF
:103310000B0B0B0B0B0B0B0B0B0B0B0B0B0B0B0BFD
:103320000A0A0A0A0A0A0AFFFFFFFFFFFFFF01025B
:10333000FFFFFFFFFFFFFFFFFFFFFFFFFFFFFFFF9D
:10334000FFFFFFFFFFFFFFFFFFFFFFFFFFFFFFFF8D
:10335000FFFFFFFFFFFFFFFFFFFFFFFFFFFFFFFF7D
:10336000FFFFFFFFFFFFFFFFFFFFFFFFFFFFFFFF6D
:00000001FF
